:100000000C946D040C948A040C948A040C948A0455
:100010000C948A040C948A040C948A040C948A0428
:100020000C948A040C948A040C94EE0F0C94300FF8
:100030000C94F1220C948A040C948A040C948A0483
:100040000C948A040C948A040C948A040C948A04F8
:100050000C948A040C94B0220C948A040C948A04A4
:100060000C948A040C948A040C948A040C948A04D8
:100070000C948A040C948A040C948A040C948A04C8
:100080000C948A040C948A040C948A040C948A04B8
:100090000C948A040C948A040C948A040C948A04A8
:1000A0000C948A040C948A040C948A0473057905D0
:1000B00064056A057F0585058B05E9055D06F10583
:1000C000BB05BF05F505C205F8050306CD055306BA
:1000D000D1050706D5050B063506D9050F063F06DF
:1000E000DF0515061F06C605FC05C905FF05E40565
:1000F0001A062B064B064D06B705ED056606C40627
:100100009C068B06A4067507CC06EF0612072F0780
:1001100091055007AC06B406C9069C068B06A406DA
:100120007507CC06EF0612072F0791055007AC069E
:10013000B4065D085D0890089008F30811092E0ABE
:100140002E0A1609A409B509B509560A700A750AD6
:100150007A0A7F0A840A890A8E0A930A980A9D0AF3
:10016000A40AA907A907A907A907A907A907A90711
:10017000A907A9074F0D760D0E0F760D0E0FBE0DB8
:10018000E10D0E0FD00EE30E511F571F5F1F651FAD
:100190006B1F711F771F7D1F831F891F8E1F941F69
:1001A0009A1FA01FA61FAC1FB21FB81FBE1FC41FDF
:1001B000CA1FD01FD61FDB1FE01FE51FEA1FEF1F5E
:1001C000F41FF91FFE1F032008200D200102E07616
:1001D0000103E0000102E04D0103E00001012800FD
:1001E00001014D01014D01014D01014D01014D0183
:1001F000014D01014D01014D01014D01014D010173
:100200004D000102E0630103E0000102E07601031A
:10021000E00001014D010128000102E0630103E05B
:100220000001014D0001014A01014A01014A010199
:100230004A01014A01014A01014A01014A01014AF8
:1002400001014A01014A000102E0630103E00001EB
:10025000014D0001014D0001014A0001014D000165
:1002600002E0780103E00001014D0001014A0001B4
:10027000014D000102E0630103E00001014F0001B4
:1002800001500001014F000102E0780103E000018C
:10029000014F000101500001014F000102E2656DB4
:1002A00073610103E2000102E06D0103E00001015E
:1002B000316672616320000102E0760103E0000113
:1002C00002E0780103E0000102E0630103E00005C1
:1002D000010902A10185020901A1000509190129ED
:1002E00008150025019508750181020501093009ED
:1002F000311581257F9502750881060938158125FC
:100300007F950175088106050C0A38021581257F45
:10031000950175088106C0C005010980A10185030A
:1003200019012AB700150126B70095017510810043
:10033000C0050C0901A101850419012AA0021501BB
:1003400026A002950175108100C005010906A101D2
:100350008506050719E029E71500250195087501AF
:1003600081020507190029EF1500250195F0750197
:10037000810205081901290595057501910295016C
:1003800075039101C005010906A101050719E029BE
:10039000E715002501950875018102950175088111
:1003A000010507190029FF150026FF0095067508AD
:1003B000810005081901290595057501910295012E
:1003C00075039101C009023B00020100A0FA090473
:1003D0000000010301010009211101000122400078
:1003E0000705810308000109040100010300000062
:1003F00009211101000122B6000705820320000136
:100400001201000200000008317401000001010225
:1004100000011003710061007A0066006F006C003B
:1004200064000000200377006800790064006F001A
:1004300062006500610072007300780070006C005B
:100440006F006400000004030904000000000000C5
:10045000000000000000000000000000000000009C
:1004600000000000000000000000000000007E0FFF
:1004700000D4FFFFFFC7000000780000000000006C
:1004800000002A2B280000000000000000000000EF
:10049000000000000029000000002C1E3420212252
:1004A00024342627252E362D3738271E1F202122BB
:1004B000232425263333362E37381F040506070834
:1004C000090A0B0C0D0E0F10111213141516171824
:1004D000191A1B1C1D2F3130232D35040506070862
:1004E000090A0B0C0D0E0F10111213141516171804
:1004F000191A1B1C1D2F3130354C14001A0008002E
:10050000150017001C00180004421600070009001F
:100510000A000B000D001D221B000600190005003B
:1005200011001000E000E300E2002C212C41E60065
:10053000547C0C00120013003600577C00000000B1
:100540000E000F0034003732000000000000680089
:100550006900225223522252235200001E001F0023
:10056000200021002200230024000100537C567C3F
:1005700009000A0033002D000100547C577C557C93
:1005800001000100010001000100217801000100CB
:10059000277801002500260027002F000100000019
:1005A00000002E00340000003000000000000000B9
:1005B0000100010001000100010001000000010034
:1005C000010001000100010001004A0001000100DA
:1005D0002A004C004A7E010050000100427E437E0A
:1005E00019010100010001000100010001000100EA
:1005F00001000100010052004D004B00010001000C
:100600000000000051004F004E00010000000000FB
:1006100000000100010001000100010001000000D4
:100620000100010001000100010001004A00010079
:10063000D200D300D10001000100CF000100DD0095
:10064000DE00DF00010001000100010001000100E7
:100650000100010001000100CD004D004B00010030
:10066000010000000000CE00D0004E00010000009C
:100670000000000001000100010001000100010074
:1006800000000102E0760103E0000102E0780103CE
:10069000E0000102E0630103E00001016E000101DE
:1006A0006D0001016C0001016B0001016A00010194
:1006B00069000101680001014500010144000101D8
:1006C000430001014200010141000101400001011C
:1006D0003F0001013E0001013D0001013C0001011C
:1006E0003B0001013A000101E30001014C0001015E
:1006F00031000101280001012A000101350001013A
:10070000290001012B00010138000D001900000033
:100710000D001B0000000D00060000000A0026006E
:1007200000000A00250000000A00240000000A0062
:10073000230000000A00220000000A00210000003F
:100740000A00200000000A001F0000000A001E002E
:1007500000000A0027000000090026000000090030
:10076000250000000900240000000900230000000B
:1007700009002200000009002100000009002000FB
:10078000000009001F00000009001E000000E60034
:10079000E00000000E000F00000015000800160029
:1007A0001700000009000D0000000F0034000000D9
:1007B0001200130000001A000800000014001A00C4
:1007C00000000442160000003600373200000F001F
:1007D00016000000D000D20000000001010101015C
:1007E00001010101020202020202020202030303EA
:1007F00003030303030404040404040405050505BA
:100800000506060606060707070707080808080979
:100810000909090A0A0A0B0B0B0C0C0C0D0D0D0E25
:100820000E0E0F0F0F1010111111121213131414BA
:10083000151516161717181819191A1A1B1B1C1D2F
:100840001D1E1E1F20202122222324242526262788
:100850002829292A2B2C2D2D2E2F303132323334BA
:1008600035363738393A3B3C3D3E3F4041424344C0
:1008700045464748494A4C4D4E4F505153545556A2
:1008800058595A5B5D5E5F616264656668696B6C4E
:100890006D6F7072737577787A7B7D7E80828385C9
:1008A00087888A8C8E8F91939596989A9C9EA0A209
:1008B000A3A5A7A9ABADAFB1B3B5B7BABCBEC0C213
:1008C000C4C6C9CBCDCFD1D4D6D8DBDDDFE2E4E7D7
:1008D000E9EBEEF0F3F5F8FAFDFF11241FBECFEFC0
:1008E000DAE0DEBFCDBF12E0A0E0B1E0E2E9F0E582
:1008F00002C005900D92A434B107D9F727E0A4E413
:10090000B2E001C01D92AA3DB207E1F70E94A21712
:100910000C9447280C940000A0E0B0E0E2E9F4E079
:100920000C940D28FC018081918123813481232B3B
:1009300031F09F3F31F491E08F3F19F403C091E013
:1009400001C090E090FD11C67F0161E0CF010E94DF
:10095000CA1EEC0180914606811147C0F7018281D1
:10096000811109C3C435FCE7DF0729F198F4C335C9
:100970008CE7D80709F097C00E948C1480E090E0C3
:100980000E945E1486E492E090937B0680937A0640
:1009900081E01EC0C6359CE7D907E9F0C735ECE712
:1009A000DE0709F080C060910001709101014FEFF6
:1009B0008EE396E017C00E948C1480E090E00E94C5
:1009C0005E148EE396E090937B0680937A0682E035
:1009D00080934606BEC2609102017091030141E01E
:1009E00086E492E00E943724B4C2C335FCE7DF07F7
:1009F00008F442C0C6352CE7D20730F0C8359CE772
:100A0000D90708F4A6C238C091E0C535DC4709F41F
:100A100090E0F7012281291709F49BC2813039F057
:100A2000823039F580917A0690917B061AC08091C8
:100A30007A0690917B06F2E086349F0739F0FC013C
:100A400038972281222311F0CF01F5CF9093030133
:100A5000809302010EC0FC0138962281222329F0E6
:100A6000CF0126E08E339207B1F790930101809376
:100A70000001109246066DC2813059F0823099F41F
:100A8000609102017091030197014FEF8EE396E0B0
:100A900008C06091000170910101970141E086E476
:100AA00092E00E94490CFE01E154FE47ED30F10551
:100AB00008F422C1FE01E851FC47E730F105A8F532
:100AC000EA5AFF4F0C94FD2706E221EE41EE6AE15F
:100AD0007CE705C007E225EE45EE6BE17CE7C70148
:100AE0000E94CE2336C206E221EE40EE68E17CE7AA
:100AF000F6CF07E225EE44EE69E17CE7F0CF06E2AF
:100B000021EE42EE6CE17CE7EACF07E225EE46EE0D
:100B10006DE17CE7E4CF08E221E045EE6EE17CE7A1
:100B2000DECFF70182818111EBC0F701828188233A
:100B300009F45EC21092CE07CE019057839708F059
:100B4000F3C184E090E00E949B2790934A06809333
:100B50004906FE01E150F047E232F10520F4E35A84
:100B6000FF4F0C94FD27809149068160ACC08091B5
:100B70004A068860B4C0809149068260A4C0809112
:100B8000490620C08091490688609DC080914A0630
:100B90001EC080914A068260A2C080914906806191
:100BA00092C08091490680628EC08091490680641F
:100BB0008AC00E948C1480914906806884C080910C
:100BC0004906886084607FC080914A0682608160A7
:100BD00086C0809149068E7F76C080914A06877FC5
:100BE0007EC0809149068D7F6EC08091490620C0ED
:100BF00080914906877F67C080914A061EC0809118
:100C00004A068D7F6CC0809149068F7E5CC08091C2
:100C100049068F7D58C0809149068F7B54C00E9441
:100C20008C14809149068F774EC080914906877F4A
:100C30008B7F49C080914A068D7F8E7F50C0809106
:100C4000490682FB222720F991E0922790FB82F946
:100C500090FB83F938C080914A06982F9095917047
:100C60008E7F892B90FB81F93AC08091490686FBE3
:100C7000222720F991E0922790FB86F924C00E9458
:100C80008C148091490687FB222720F991E0922756
:100C900090FB87F918C061E001C060E08EE090E051
:100CA0000E94A1271EC08091490684FB222720F9BB
:100CB00091E0922790FB84F906C080914906982F15
:100CC000909590FB80F9809349060BC080914A066D
:100CD00083FB222720F991E0922790FB83F98093F0
:100CE0004A066091490670914A0684E090E00E94AD
:100CF000BF270E948C142DC1E158FF4F0C94FD2793
:100D000080914706811115C081E08093470681EEEE
:100D10000E94AD150ACFF7018281882309F405CF1F
:100D200087EC92E00E949E0B80914706882309F48D
:100D3000FCCE1092470624C0F7018281882309F473
:100D4000F4CE8FEB92E0EECFF7018281882309F495
:100D5000ECCE87EB92E0E6CFF7018281882309F49D
:100D6000E4CE8EEA92E0DDC0F7018281882309F4A7
:100D7000DCCE81EE0E94AD1586EA92E00E949E0BC9
:100D800081EE0E944915D1CEF7018281882309F4B2
:100D9000CCCE8BE992E0C5C0F7018281882309F4AB
:100DA000C4CE81EE0E94491580EE0E94AD1587E900
:100DB00092E00E949E0B83E992E00E949E0B81EEDE
:100DC0000E94AD158FE892E00E949E0B81EE0E947A
:100DD000491580EE0E94491587E892E081C0F7012D
:100DE0008281882309F4A1CE81EE0E94491580EE0C
:100DF0000E94AD1583E892E00E949E0B8FE792E07F
:100E00000E949E0B81EE0E94AD158BE792E00E943E
:100E10009E0B81EE0E94491580EE0E94491583E7E2
:100E200092E05EC0F7018281882309F47ECE81EED4
:100E30000E9449158FE692E00E949E0B8BE692E09D
:100E40000E949E0B81EE0E94AD1587E692E00E9403
:100E50009E0B81EE0E9449158FE592E041C0F7019B
:100E60008281882309F461CE81EE0E9449158BE5C9
:100E700092E00E949E0B87E592E00E949E0B81EE1D
:100E80000E94AD1583E592E00E949E0B8FE492E0F4
:100E90000E949E0B81EE0E94491587E492E020C0DB
:100EA000F7018281882309F440CE81EE0E94491522
:100EB00085E292E00E949E0B81EE0E94AD1581E2D8
:100EC00092E00E949E0B81EE0E94491589E192E01A
:100ED0000E949E0B82E192E00E949E0B8AE092E0CB
:100EE0000E949E0B1092470620CEF7018281882334
:100EF00009F41BCE82E092E00E949E0B10924706FE
:100F000081EE0E94491580EE91E00E949E0B8CEDCF
:100F100091E00E949E0B84ED91E00E949E0B8CEC70
:100F200091E00E949E0B01CEC631FCE7DF0771F510
:100F3000809148078A7A91E009F490E090934806FE
:100F40008111AEC269E28DEB96E00E9442230E94BD
:100F5000E11D80912707877009F407C3F70182819B
:100F6000882309F402C380914A0682FFFEC282E010
:100F70000E94361EFAC2FE01E154FE47ED30F10533
:100F800008F098CDE457FF4F0C94FD27C330FCE7E1
:100F9000DF07C9F040F4C1158CE7D80789F0C130EC
:100FA000DC47B9F034C0CB35ECE7DE07E9F0CC35EF
:100FB000FCE7DF0789F0CA35DC4749F581E015C059
:100FC0000E94101FC6CF6FEF7FEF80E090E00E947D
:100FD000BF270E94FA1EBDCF80914A0682FB882758
:100FE00080F991E0892701C080E00E94531E0FC064
:100FF000C6312CE7D20709F4ACC28091480782724F
:10100000FE01E052F847E531F10508F44BC2F70163
:10101000868197810097B9F4F7018281C081D181DF
:10102000882349F0CE010E945B11182F682FCE0152
:101030000E942A1404C0CE010E94F713182FBE018B
:10104000812F0E94131C0E94301CD82FC92FF7013A
:101050001281058102950F70809127078770E9F052
:101060001123D9F0892F807F803451F080E28D0FD9
:10107000883098F0011104C0892F807E803269F099
:1010800080914A0682FF09C082E00E94361E80914C
:1010900027078770DD24D3948111D12CCC2EC294E4
:1010A0008FE0C8228C2D90E08C30910508F0D6C1DD
:1010B000FC01E756FF4F0C94FD278C2F807FCF70EB
:1010C000882311F0C295C07F1123B9F0CC2309F415
:1010D000B3C180E28D0F883010F0D11106C090911D
:1010E0004807C92BC093480705C090915B07C92BDF
:1010F000C0935B070E94E11D9FC18D2F0E9449157F
:10110000CC2309F4ABC180E28D0F883078F1DD2368
:1011100069F1C09590915B07C923C0935B0729C013
:101120008C2F807FCF70803211F0C295C07FDD237D
:1011300021F0D13009F43FC04BC080914A0682FDB6
:101140001BC0112369F0CC2339F090914807C92BBB
:10115000C09348070E94E11D80E00E94AD157EC14A
:1011600080E00E944915CC2309F478C18C2F0E949D
:10117000DA1D0E94E11D72C1112379F080914907A7
:10118000002349F0013039F4C82BC81709F466C1AF
:10119000C093490763C18C2B14C0011103C00E9486
:1011A000D41D1DC0013009F459C18C2F0E9438157F
:1011B0000E94D41D53C1112339F0063008F04EC1EE
:1011C0008C2F0E943F154AC1053008F047C107C067
:1011D000112319F00023A1F32FC1011131C18C2F6C
:1011E0000E9438153BC18C2F86958695837019F027
:1011F000813061F033C1112321F08D2F9C2F93702A
:1012000002C080E090E00E949C232EC1112321F0B7
:101210008D2F9C2F937002C080E090E00E94772376
:1012200023C1612F8D2F0E94B5261EC18C2F837084
:1012300009F041C0111116C12D2F22952695277056
:10124000220F220F8D2F8F7090E0022E02C0880F88
:10125000991F0A94E2F7D4FF0BC04FE050E002C0A0
:10126000440F551F2A95E2F79A012095309502C048
:1012700020E030E0C695C695C370C23099F068F49E
:1012800040914A0750914B07C13029F0822B932B94
:101290008423952304C0842B952B822B932B0E94AF
:1012A0008714E0C0822B932B20914A0730914B0783
:1012B00082279327F4CF112319F08C2F817001C05E
:1012C0008695882309F4CEC02D2F22952695277068
:1012D000220F220F8D2F8F7090E0022E02C0880FF8
:1012E000991F0A94E2F7D4FF0BC04FE050E002C010
:1012F000440F551F2A95E2F79A012095309502C0B8
:1013000020E030E0C695C695C370C23079F0B8F4DD
:101310004091CA075091CB07C13029F0822B932B03
:10132000842395230EC0842B952B09C0822B932BED
:101330002091CA073091CB078227932702C0822BC6
:10134000932B0E945E148EC0CF70112339F08C2F26
:101350000E9477148D2F0E943F1584C08D2F0E940C
:1013600038158C2F0E9465147DC0D23F61F128F49E
:10137000D03F41F0D13F11F15BC0D33F59F1D43F91
:10138000C9F056C0112391F0053008F067C0CF7145
:1013900081E090E002C0880F991FCA95E2F7209182
:1013A000CA073091CB078227932721C0063008F067
:1013B00055C0EDCF80914A0682FD1CC0112329F053
:1013C0008C2F8F7129C01123D9F38C2F8F710E941C
:1013D000651444C0112349F0CF7181E090E002C050
:1013E000880F991FCA95E2F702C080E090E00E9442
:1013F0005E1434C0112399F0CF718C2F0E947714A2
:1014000080914A0682FF07C0E8E0CE9FC001112408
:101410008360809327078C2F0E9477141FC081E080
:101420000E94361E0230D0F082E00E94361E16C0A6
:10143000112321F0002321F28D2F8FCE002329F2DA
:10144000D93349F4FFEF27EE83E0F150204080408C
:10145000E1F700C000008D2F0E94491588EF8C0D28
:10146000843010F40E94C123DD20A9F08091270769
:1014700080FD11C0F70112828595859585950E94A2
:101480007714C7010E948C04809127078595859564
:1014900085950E94651460E0C7010E94CA1E65C060
:1014A00065E351CDEB55FF4F0C94FD278091540718
:1014B00080FF10C08E7F8093540760915407709115
:1014C000550780915607909157070E94E3160E9496
:1014D000CE253FCD81608093540761E0869536C06C
:1014E00044E157E16EE177E12CC04EE157E164E160
:1014F00077E127C04FEC56E169ED76E122C049ED76
:1015000056E16FEC76E11DC045EB56E162EC76E109
:1015100018C042EC56E165EB76E113C04BE956E1A9
:1015200068EA76E10EC048EA56E16BE976E109C067
:101530004EE452E260E672E204C040E652E26EE43B
:1015400072E20E94C72505CD61E081E00E94F61697
:1015500000CD80914806811106C069E28DEB96E0CE
:101560000E941A23F4CC65E3F9CFCDB7DEB7E8E0EB
:101570000C9429288091720687FF11C08091E800A1
:1015800082FD05C0809170068111F8CF11C0809155
:10159000E8008B770BC080917006882349F080911A
:1015A000E80080FFF8CF8091E8008E778093E80014
:1015B0000895982F973068F59093E900981739F0BF
:1015C0007091EC002091ED005091F00003C0242FA9
:1015D000762F50E021FD02C09F5FECCF3091EB00F1
:1015E0003E7F3093EB003091ED003D7F3093ED0076
:1015F0003091EB0031603093EB007093EC0020935E
:10160000ED005093F0002091EE0027FDE5CF80E043
:1016100008958F708093E90081E008952091780605
:10162000309179062617370748F06115710539F4AE
:101630002091E8002E772093E80001C0B901FC0159
:1016400020E06115710579F1809170068823F1F130
:101650008530F1F18091E80083FD3CC08091E80085
:1016600082FD2EC08091E80080FFEBCF2091F30037
:101670008091F20090E0922B6115710551F0883055
:10168000910538F421912093F10061507109019680
:10169000F3CF21E0089709F020E08091E8008E77F1
:1016A0008093E800CECF2111CFCF0AC08091700681
:1016B000882361F0853061F08091E80083FD0AC0E5
:1016C0008091E80082FFF2CF80E0089582E00895E3
:1016D00083E0089581E0089543E050E0BC0182E09A
:1016E0000E947222089546E050E0BC0182E00E9410
:1016F00072220895CF93DF93EC0180910401811150
:1017000005C048E050E0BE0181E00BC08091490671
:1017100087FF03C040E282E002C048E081E050E081
:10172000BE010E94722280E2FE01AEE4B6E00190AA
:101730000D928A95E1F7DF91CF910895A0E0B0E096
:10174000E4EAFBE00C940B28EC018AE0A82EFE01F1
:101750002491222309F498C0213009F03DC031962C
:101760008491813021F42296FE01849187C08230D9
:1017700031F42296FE0184910E94AD1583C083301E
:1017800031F42296FE0184910E9449157BC0843079
:1017900009F077C02296FE01249180E090E030E0CD
:1017A000205331092A30310560F4A89EA001A99E7A
:1017B000500D1124C901840F951F2196FE0124911B
:1017C000EECF009709F45EC0EFE9FFE03197F1F743
:1017D00000C000000197F5CFE22FF0E0E658FB4F84
:1017E000B490822F86958695869590E0FC01E65907
:1017F000FB4FE4902770F12C022E02C0F594E79481
:101800000A94E2F7F1E0EF22FF24FC01E65AFB4FD5
:10181000C490D12C022E02C0D594C7940A94E2F74A
:1018200031E0C322DD24FC01E65BFB4F049110E0B4
:1018300002C0159507952A95E2F701701127E1146A
:10184000F10419F081EE0E94AD15C114D10419F014
:1018500086EE0E94AD158B2D0E947116C114D10425
:1018600019F086EE0E944915E114F10419F081EE99
:101870000E9449150115110529F08CE20E9471168C
:1018800001C0EF01219663CFCDB7DEB7EAE00C943B
:101890002728F9012281A0917A06B0917B062111B7
:1018A00003C0A817B907C9F088E04802A0011124B5
:1018B000CD01841B950B6817790779F088E00190BA
:1018C0000D928A95E1F780917A0690917B06480FF8
:1018D000591F50937B0640937A060895AAE2B0E020
:1018E000E4E7FCE00C941228E2E7F6E08AE796E0F1
:1018F0002091F10021938E179F07D1F780917306F5
:10190000833009F461C030F4813071F0823009F421
:101910009BC0B2C08A3009F487C08B3009F46CC018
:10192000893009F0A9C020C080917206813A09F07F
:10193000A3C08091E800877F8093E80080917606BD
:1019400090917706892B21F460E28EE496E003C043
:1019500060E080E090E070E00E940E0B8091E80073
:101960008B778093E80088C080917206813209F0FD
:1019700083C08091760690917706029708F07CC02C
:101980008091E800877F8093E8008091E80082FDE5
:1019900005C0809170068111F8CF6EC02091F300D0
:1019A0008091F20090E0922B029731F48091F10047
:1019B000813011F0863021F48091F10080934D0642
:1019C0008091E8008B7754C080917206813A09F0CB
:1019D00053C08091760690917706892B09F04CC010
:1019E0008091E800877F8093E8008091E80080FF85
:1019F000FCCF8091040137C0809172068132E1F5FD
:101A00008091760690917706892BB1F58091E80058
:101A1000877F8093E8000E94BA0A809174068093C1
:101A200004010E948C1428C080917206813221F535
:101A30008091E800877F8093E8000E94BA0A809135
:101A4000750680934C0618C080917206813AA1F405
:101A50008091E800877F8093E8008091E80080FF14
:101A6000FCCF80914C068093F1008091E8008E7746
:101A70008093E8000E94BA0A8091E80083FFCEC1FB
:101A80008091720690917306492F50E04A305105BB
:101A900008F0C4C1FA01E654FF4F0C94FD278038CA
:101AA00021F0823809F0BAC108C080916E06909189
:101AB0006F06992389F082600FC0809176068F703F
:101AC000873008F0ABC18093E9008091EB0085FB83
:101AD000882780F91092E9009091E800977F909311
:101AE000E8008093F1001092F10065C1282F2D7F4E
:101AF00009F094C1882319F0823061F08FC1809180
:101B00007406813009F08AC1933009F080E0809337
:101B10006F062EC08091740681112AC080917606CE
:101B20008F702FEF280F263008F078C18093E900DE
:101B30002091EB0020FF1CC0933021F48091EB003A
:101B4000806214C09091EB0090619093EB0021E0D3
:101B500030E0A90102C0440F551F8A95E2F7409377
:101B6000EA001092EA008091EB0088608093EB001D
:101B70001092E9008091E800877F20C181114EC159
:101B8000109174061F778091E3008078812B8093F9
:101B9000E3008091E800877F8093E8000E94BA0A02
:101BA0008091E80080FFFCCF8091E3008068809303
:101BB000E300111102C082E001C083E0809370064F
:101BC0002DC18058823008F029C18091740690910F
:101BD00075068C3D53E0950779F583E08A838AE2A8
:101BE00089834FB7F894DE01139620E03EE051E27E
:101BF000E32FF0E050935700E49120FF03C0E295FB
:101C0000EF703F5FEF708E2F90E0EA3010F0C796D4
:101C100001C0C0968D939D932F5F243149F74FBF2C
:101C20008091E800877F8093E8006AE270E0CE014F
:101C300001960E940E0BAEC0409176065091770639
:101C4000292F332723303105A9F068F421303105DD
:101C500009F4F3C02230310509F0E0C08BE390E0D5
:101C6000E5ECF3E044C02132310521F122323105A7
:101C700071F1D4C0992781309105A1F058F00297F5
:101C800009F0CCC0E2E1F4E0E4918E2F90E0E2E1D3
:101C9000F4E02AC0E6E4F4E0E4918E2F90E0E6E47C
:101CA000F4E022C0E4E2F4E0E4918E2F90E0E4E27C
:101CB000F4E01AC04115510509F4C4C04130510582
:101CC00009F0ACC089E090E0E0EFF3E010C041150E
:101CD000510509F4BCC04130510509F09FC086EBA5
:101CE00090E0EFECF2E003C0009709F497C0209178
:101CF000E800277F2093E80020917806309179064C
:101D00008217930708F49C0140E02115310589F101
:101D100080917006882309F43DC08530D9F1809107
:101D2000E80083FD37C08091E80082FD2FC08091DC
:101D3000E80080FFEACF4091F3008091F20090E04C
:101D4000942B2115310559F08830910540F44491C8
:101D50004093F1003196215031090196F2CF41E0D4
:101D6000089709F040E08091E8008E778093E800C2
:101D7000CCCF4111CDCF0AC080917006882351F09D
:101D8000853041F08091E80083FD04C08091E80037
:101D900082FFF2CF8091E8008B778093E8003EC00D
:101DA0008038E1F58091E800877F8093E80080919A
:101DB00071068093F1008091E8008E778093E800AF
:101DC0000E94BA0A2BC0811129C08091740690919B
:101DD00075069927029714F58091E800877F809314
:101DE000E80010917406109371060E94BA0A11114E
:101DF00006C08091E30087FD02C081E001C084E05D
:101E00008093700642E061EC81E00E94D90A42E2D0
:101E100061EC82E00E94D90A809170068091E8000E
:101E200083FF1AC08091E800877F8093E80080914B
:101E3000EB0080628093EB000FC082E190E0E0E075
:101E4000F4E055CF89E090E0E7EDF3E050CF80E497
:101E500090E0E5E8F3E04BCFAA96E3E00C942E285F
:101E60001F920F920FB60F9211242F933F934F930F
:101E70005F936F937F938F939F93AF93BF93CF9312
:101E8000DF93EF93FF93C091E900CF708091EC0056
:101E9000D82FD17080FDD0E81092E9008091F00039
:101EA000877F8093F00078940E946E0C1092E90076
:101EB0008091F00088608093F000CD2BCF70C093AC
:101EC000E900FF91EF91DF91CF91BF91AF919F9189
:101ED0008F917F916F915F914F913F912F910F90D3
:101EE0000FBE0F901F901895E8EDF0E080818E7F77
:101EF00080831092E2001092DA001092E100A0EECE
:101F0000B0E08C9181608C9380818F77808319BC45
:101F1000A7EDB0E08C918E7F8C9380818F7E808343
:101F200010924B060895A0E0B0E0E9E9FFE00C94C0
:101F30000D28C8EDD0E088818F7E8883E7EDF0E042
:101F400080818160808384E082BF81E080934B0642
:101F500088818E7F888302EE10E0F8011082109253
:101F6000DA0081EEC82ED12CF601108288818F779D
:101F7000888388818068888388818F7D888319BC65
:101F8000109270061092710610926F0610926E06F3
:101F900090EEE92EF12CF70180818B7F8083888180
:101FA0008160888342E060E080E00E94D90AF60107
:101FB00080818E7F8083F801808181608083808131
:101FC00088608083F70180818E7F80838881806133
:101FD0008883CDB7DEB7E8E00C9429281F920F92D2
:101FE0000FB60F9211242F933F934F935F936F93EC
:101FF0007F938F939F93AF93BF93EF93FF938091C2
:10200000E10082FF09C08091E20082FF05C080915B
:10201000E1008B7F8093E1008091DA0080FF2AC08D
:102020008091D80080FF26C08091DA008E7F809357
:10203000DA008091D90080FF18C080E189BD82E17B
:1020400089BD09B400FEFDCF81E0809370068091C8
:102050004B0681110FC00E94740F0E94930F809154
:10206000E20084608093E20005C019BC1092700603
:1020700010924B068091E10080FF17C08091E20032
:1020800080FF13C08091E2008E7F8093E2008091F8
:10209000E20080618093E2008091D80080628093AA
:1020A000D80019BC85E0809370068091E10084FF20
:1020B00030C08091E20084FF2CC080E189BD82E1C4
:1020C00089BD09B400FEFDCF8091D8008F7D80933B
:1020D000D8008091E1008F7E8093E1008091E20042
:1020E0008F7E8093E2008091E20081608093E20025
:1020F00080917106882311F084E007C08091E3008D
:1021000087FD02C081E001C083E08093700680916A
:1021100070068091E10083FF27C08091E20083FF79
:1021200023C08091E100877F8093E10082E080936B
:102130007006109271068091E1008E7F8093E1001D
:102140008091E2008E7F8093E2008091E2008061C6
:102150008093E20042E060E080E00E94D90A809132
:10216000F00088608093F000FF91EF91BF91AF91F4
:102170009F918F917F916F915F914F913F912F919F
:102180000F900FBE0F901F9018952091E400309192
:10219000E50095E64091EC00842F817040FF23C05C
:1021A0008091E80080FD1DC080917006882399F021
:1021B000853099F08091EB0085FD11C04091E400DD
:1021C0005091E5002417350729F3915011F09A0139
:1021D000E1CF84E0089582E0089583E0089581E0EE
:1021E000089580E008954091E80042FFDDCF089512
:1021F000A0E0B0E0EEEFF0E10C940D288091E20653
:1022000082958F7009F052C08091DF06882309F40F
:102210004DC0C09126078091E506C81709F446C055
:10222000F090DD06E090DE06C090E006D090E1067A
:10223000A6016E2D8F2D0E948A1ED0E0882399F171
:102240008E0183E0000F111F8A95E1F7F801EA5132
:10225000F94F81818E1127C080818F1124C0828126
:10226000811121C0E380F480EC18FD0860E08DED61
:1022700096E00E94CA1E86E9E816F104A0F4809157
:10228000E2068F7080618093E206F801E551F94F14
:1022900080818F70806180838DED96E00E948C0438
:1022A0000E949A1E03C02196C770B5CFCDB7DEB786
:1022B000E8E00C942928A0E0B0E0E1E6F1E10C941C
:1022C0000C287C010091CA071091CB0780914A0726
:1022D00090914B07082B192BCFE0D0E0CC24C3946E
:1022E000D12CC6010C2E02C0880F991F0A94E2F768
:1022F00080239123892B21F4219798F7B12C09C0D1
:10230000BC2EB7018C2F0E94131C0E94301C019719
:1023100099F38B2DCDB7DEB7E9E00C942828CF9345
:10232000DF93EC010E945B11BE010E94131C0E940E
:10233000301CDF91CF910895CF93FC019081818172
:1023400023813481232B31F08F3F31F481E09F3F93
:1023500019F403C081E001C080E0C82FC17080FD86
:1023600023C086819781009719F00E94301C04C019
:10237000808191810E948F1192959F70963079F0A3
:1023800010F4925001C09A50923088F4803F71F05E
:1023900018F4883E60F40AC0843F49F407C0883EC0
:1023A00028F0813F21F402C0C0E001C0C1E08C2FC1
:1023B000CF910895A5E1B0E0E0EEF1E10C9405289D
:1023C0008C0185E0F801DE01519601900D928A950D
:1023D000E1F7D8011296EC908DEDA82E86E0B82E8C
:1023E0008090E0069090E106A4016091DE06809165
:1023F000DD060E948A1E482E882309F48DC1F8014B
:10240000C380D480F090DF06C601881999094C0179
:10241000FF2009F40FC15080618060E0C5010E9477
:10242000CA1E7090E20696E98916910408F0BAC0B7
:102430004091E0065091E106B090DD06A090DE06E6
:10244000872D807F6A2D09F04AC08B2D0E948A1E3D
:10245000882329F1D80111968C9111978A111FC0F8
:102460008C918B111CC02091E3063091E4061696E6
:102470008D919C9117972817390789F4FE2CE1104C
:102480000EC0872D8F7080618093E2068DED96E0FF
:102490000E948C048091E206F8018583A3C1A60105
:1024A000662D852D0E948A1EF82E882319F081E062
:1024B0008E2502C080E090E080FF49C14E2D662D40
:1024C000852D0E946A1E882309F441C18DED96E096
:1024D0000E948C04EDEDF6E088E0DF016CC08B2DEE
:1024E0000E948A1EF82E8823A1F0F80181818A11AA
:1024F00010C080818B110DC02091E3063091E4065D
:10250000868197812817390721F4E11002C075826E
:10251000E2C0C8010E949C118823F1F1EE20E1F194
:102520002091E206822F82958F7090E00297A4F0AE
:102530008091DD069091DE069A8789871B86DD866D
:10254000CC862E878091E3069091E406988B8F8746
:10255000CE0109960E948C0488E0F801ADEDB6E04A
:1025600001900D928A95E1F70E94F810F42C3AC17F
:102570009090DD068090DE064091E0065091E106E5
:10258000682D892D0E948A1EF82E811119C0C8015C
:102590000E949C11811130C0C8010E948C04FF244C
:1025A000F39420C1872D807F19F78DED96E00E946E
:1025B0008C0488E0D5011D928A95E9F7F12C12C1AF
:1025C000F80181818811E3CF80818911E0CF2091CA
:1025D000E3063091E4068681978128173907B9F61A
:1025E000E110D5CF7582C8010E948C0488E0D50126
:1025F0001D928A95E9F7F6C0EE2071F22091E2066D
:10260000822F82958F7090E002970CF4A5CF809175
:10261000DD069091DE069A8389831B82DD82CC825F
:102620002E838091E3069091E40698878F83CE01F4
:10263000019690CF60E08DED96E00E94CA1EB6E94B
:102640008B16910408F062C0EE2009F4A5CF90909B
:10265000DD068090DE06A090E006B090E106A501C0
:10266000682D892D0E948A1EF82E882309F43FC008
:10267000F801818188113BC08081891138C0209187
:10268000E3063091E406868197812817390779F5AA
:10269000CA18DB08F6E9CF16D10400F58091E206EE
:1026A00080FD1CC082958F70482F50E04115510568
:1026B000A9F02091E206D80115962C9315974F307A
:1026C000510549F08F5F982F9295907F822F8F70E0
:1026D000892B15968C93C8010E948C0488E0F80120
:1026E000ADEDB6E001900D928A95E1F77BC0C8018F
:1026F0000E949C11811130CF8091E206816080930D
:10270000E206C8010E948C04FE2C6CC088E0F50132
:1027100011928A95E9F766C0EE2009F43DCFC80111
:102720000E949C11F82E882309F436CF88E0F80126
:10273000ADEDB6E001900D928A95E1F78091DD064E
:102740009091DE060E948F110E94F8104BC0FF206E
:1027500009F445C081E08E25F82FF170DF2E80FF4F
:1027600035C04E2D662D852D0E946A1EF82E8111D2
:102770002DC0598A6A8A89899A890E948F11292FC6
:1027800022952F70243020F49F70223028F009C049
:102790002A50223088F015C0992351F0811108C0C9
:1027A00021C0992329F0D80115969C91907FD1F0F2
:1027B000805E883030F416C0803FA0F0815F8330A7
:1027C00088F0C8010E948C04FD2C0CC0FE2CEE2069
:1027D00049F08091E20681608093E206EFCE80E0CE
:1027E00090E0BACF8F2D6596E0E10C9421289730C8
:1027F00078F5873068F5E82FF0E087E0989FE00DE6
:10280000F11D11249E2F977083E0F695E7958A9528
:10281000E1F7EE0FFF1FEE0FFF1FE458F94F40E006
:1028200050E080E0219130E0092E02C036952795D6
:102830000A94E2F721703327042E01C0220F0A9474
:10284000EAF7822B4F5F5F4F4430510559F70895E7
:1028500080E00895973088F5873078F5E82FF0E02C
:1028600087E0989FE00DF11D11248E2F877051E0B5
:1028700001C0550F8A95EAF783E0F695E7958A95AA
:10288000E1F7EE0FFF1FEE0FFF1FE458F94F20E0B6
:1028900030E070E04081CB01022E02C09695879512
:1028A0000A94E2F781708195842785238427819398
:1028B0002F5F3F4F2430310569F708950E942C1F88
:1028C0009093CB078093CA07089521E030E002C0BF
:1028D000220F331F8A95E2F7209530958091CA0721
:1028E0009091CB07822393230E945E14089521E0E8
:1028F00030E002C0220F331F8A95E2F78091CA07A9
:102900009091CB07822B932B0E945E140895909395
:102910004B0780934A07089510924807809104015D
:10292000882331F08091490687FF02C08EE101C003
:1029300086E0EFEBF6E0DF011D928A95E9F780E093
:1029400090E00E949C2380E090E00E947723109208
:102950005B070E94E11DE7EBF6E086E0DF011D92D8
:102960008A95E9F71092B0061092B1061092B2065D
:102970000E9433170895A0E1B0E0E1ECF4E10C947B
:10298000132829873A874B875C876D877E878F87D7
:10299000988BCE0109960E94DA11811151C088E00E
:1029A000FE013996DE01119601900D928A95E1F7AC
:1029B00079856A854C855D854115510531F06F3FFC
:1029C00031F481E07F3F19F403C081E001C080E071
:1029D00080FD36C0A091E506B0E0CD01019687707C
:1029E00099272091260730E08217930781F1798398
:1029F0006A835D834C8393E0AA0FBB1F9A95E1F72E
:102A0000AA51B94F98E0FE01319601900D929A9526
:102A1000E1F78093E5060E949A1E12C028E0829F8B
:102A2000C00111248A51994F0E94DA118823E1F0E4
:102A30008091260790E0019687709927809326075A
:102A4000809126079091E5068913E8CF0DC00E947A
:102A50008C141092E50610922607EDEDF6E088E062
:102A6000DF011D928A95E9F76096E2E00C942F2829
:102A7000882321F00E94DA1D0E94E11D0895882319
:102A800039F090914807892B809348070E94E11DF7
:102A90000895882309F460C0823869F40E94C12334
:102AA00081FF5AC069E38DEB96E00E9442230E94A9
:102AB000E11D69E30EC0833899F40E94C12380FFB1
:102AC0004BC063E58DEB96E00E9442230E94E11D1E
:102AD00063E58DEB96E00E941A230E94E11D0895A4
:102AE000843869F40E94C12382FF36C067E48DEB0D
:102AF00096E00E9442230E94E11D67E4EACF9CEF2A
:102B0000980F913A10F4682FE4CF90E2980F983024
:102B100050F4877091E001C0990F8A95EAF7892FE8
:102B20000E94DA1DDACF9BE5980F933028F480E0FD
:102B300090E00E949C23089598E5980F9B3128F41B
:102B400080E090E00E947723089593E3980F9331FB
:102B500018F460E00E94B5260895CF93882309F405
:102B6000BEC0C82F8238B1F40E94C12381FDB7C016
:102B700069E38DEB96E00E9442230E94E11D2FEF56
:102B800087EE93E0215080409040E1F700C00000C4
:102B900069E317C08338E1F40E94C12380FD9FC020
:102BA00063E58DEB96E00E9442230E94E11D2FEF2A
:102BB00081EE94E0215080409040E1F700C0000099
:102BC00063E58DEB96E00E941A230E94E11D87C009
:102BD0008438B1F40E94C12382FD81C067E48DEB8B
:102BE00096E00E9442230E94E11D2FEF81EE94E0C7
:102BF000215080409040E1F700C0000067E4E1CF41
:102C00008CEF8C0F813AC0F5809104018823E1F0AC
:102C10008091490687FF18C0EC2FE695E695E6956A
:102C2000F0E0E354F94F8281282F30E04C2F4770B9
:102C300081E090E002C0880F991F4A95E2F7822355
:102C40009323892B61F412C0EFEBF6E085EC96E05C
:102C50002191C21721F08E179F07D1F707C06C2F63
:102C60008DEB96E00E941A230E94E11D6C2F8DEBE4
:102C700096E00E944223A9CF80E28C0F883068F44E
:102C8000C77081E090E001C0880FCA95EAF7909183
:102C90004807892B8093480798CFEBE5EC0FE3308A
:102CA00040F4F0E0E65FFD4F808190E00E949C23BD
:102CB00016C0E8E5EC0FEB3150F4F0E0EE0FFF1F2B
:102CC000E35FFD4F808191810E94772308C083E3F9
:102CD0008C0F833120F461E08C2F0E94B526CF91B8
:102CE00008951F93CF93DF93182F893319F0C0E015
:102CF000D0E002C0C0E5D0E0812F0E94AD15209742
:102D000041F08FE99FE00197F1F700C000002197A3
:102D1000F6CF812F0E944915DF91CF911F91089521
:102D200080915407982F9695913021F081708260A0
:102D3000809354070895E4E5F7E0438121E1421BC5
:102D400008F440E021E0628181810E940C26089510
:102D5000E4E5F7E0438121E1420F08F44FEF21E081
:102D6000628181810E940C260895E4E5F7E062818A
:102D700021E1621B08F460E021E0438181810E942F
:102D80000C260895E4E5F7E0628121E1620F08F482
:102D90006FEF21E0438181810E940C260895E4E5D4
:102DA000F7E0818121E04381628188500E940C26F6
:102DB0000895E4E5F7E0818121E043816281885F45
:102DC0000E940C260895CF92DF92EF92FF926B0142
:102DD0007C010E949016B701A60188E090E00E9455
:102DE000B327FF90EF90DF90CF9008958091540724
:102DF00080FF19C08170826080935407662351F070
:102E0000609154077091550780915607909157072C
:102E10000E94E31620E04091570760915607809189
:102E200055070E940C26089580915407869581507D
:102E300009F481E061E00E94F616089561E081E006
:102E40000E94F6160895E4E5F7E083E0808311829E
:102E50008FEF828383831482608171818281938169
:102E60000E94E31608950E94E5222091B9062111DF
:102E700004C02091BA06222321F09093B6068093D5
:102E8000B5062091BB06211104C02091BC06222367
:102E900021F09093B4068093B306E091D107F091AE
:102EA000D207309749F082E08093B7060480F5811D
:102EB000E02D87EB96E0099508958091B20680FD9C
:102EC00016C081FD16C082FD18C08091B10688230E
:102ED00091F0883290F428E0829FC001112468E2CA
:102EE00070E00E94E927862F672B29F007C082E057
:102EF000089584E0089581E0089588E00895809120
:102F0000B20680FD17C081FD17C082FD19C08091F7
:102F1000B006882399F0823398F420E3829FC001A1
:102F2000112462E370E00E94E927862F672B49F4A1
:102F300081E008958CE0089588E1089588E008957F
:102F400080E30895ABE0B0E0E8EAF7E10C940628EE
:102F500085B7806885BF85B7806885BF84B7877F60
:102F600084BF0FB6F894A895809160008861809323
:102F70006000109260000FBE90E080E80FB6F894F9
:102F800080936100909361000FBE82E79AE1909375
:102F90004502809344020E94740F0E94930F809117
:102FA000E20084608093E200789480917006882328
:102FB000A1F01091E9001F709091EC00892F8170B1
:102FC00090FD80E8182B1092E9008091E80083FDC5
:102FD0000E946E0C1F701093E90082E084BD93E0A4
:102FE00095BD9AEF97BD80936E000CEF11E0D8016C
:102FF0008D918D018F3F11F00E94531BB2E0033081
:103000001B07A9F703E012E05AE0E52E52E0F52E87
:10301000F80181918F018F3F11F00E94531BE01640
:10302000F106B1F787E0E0EAF6E0DF01282F1D9214
:103030002A95E9F7E8E9F6E0DF011D928A95E9F7BC
:1030400080E090E00E949B27873E9E4F11F00E94F7
:10305000751D82E090E00E948D278093A70684E092
:1030600090E00E949B2790934A068093490683E054
:1030700090E00E948D2790E00E9487148091CA07FB
:103080009091CB070E942C1F80919F06811134C024
:1030900080E090E00E949B27873E9E4F21F00E9497
:1030A000751D0E94231788E090E00E949527609389
:1030B00054077093550780935607909357076E7F78
:1030C00071F40E94231788E090E00E949527609396
:1030D00054077093550780935607909357070E94A3
:1030E00090168091540780FF04C060E086950E948E
:1030F000F61681E080939F0685E091E09093D207D9
:103100008093D10708E110E040E4E42EFF24F3941B
:1031100080917006853009F042C020E1C22E32E174
:10312000D32E80917006853009F035C080917006ED
:10313000843009F11092D5070FB6F894A895009342
:1031400060000FBEE092600083B7817F846083BF20
:1031500083B7816083BF7894889583B78E7F83BF60
:103160000FB6F894A8958091600088618093600004
:10317000109260000FBE80916F06882391F20E942A
:103180006A1BE0EAF6E0819181118CC126E0E73A02
:10319000F207C9F7C6CF0E948C140E94C1230E9477
:1031A0006A1B88EAA82E86E0B82E90EA892E96E05F
:1031B000992ED401F50191918D91892736E0EF3A4E
:1031C000F30719F08823B9F305C0811103C00E94E9
:1031D0004D1D3BC0D12CD4015D904D01F5016080A7
:1031E000652409F1C12C77247394862D8721A1F0E1
:1031F000CF82D88691E0852D872109F490E09987C8
:103200000E94E5228160782F9B878A874F815885AD
:1032100069858B850E941420C394770CF7E0CF1248
:10322000E4CFD5015C92D394BFEFAB1ABB0AE7E0C1
:10323000DE12D1CF8FB7F8944091D6075091D707BF
:103240006091D8077091D9078FBF8091FB018823C7
:1032500041F18091C8079091C907009711F10E9430
:10326000D6222091590730915A0728173907C8F4F8
:103270009091C6078091C707981759F00E942F2593
:1032800010925A07109259071092C9071092C80756
:1032900008C00E94A8241092C9071092C8070E9473
:1032A0000F2586E0E7EBF6E0DE01119601900D9226
:1032B0008A95E1F71092B9061092BA061092BB06F1
:1032C0001092BC068B81811104C08C81882309F483
:1032D00051C08091B5069091B6060E94D6229C01FD
:1032E0009091B006992309F4F3C02D30310508F40C
:1032F00041C09F3F19F09F5F9093B006DB80DD20B7
:1033000061F00E947F171D1414F491E001C09FEF3B
:10331000899F802D11248093B906DC80DD2061F027
:103320000E947F171D1414F491E001C09FEF899F44
:10333000802D11248093BA063091B9063323D1F041
:103340002091BA062223B1F045EB3403C0011124C9
:10335000992319F09093B90602C0F092B90635EBA3
:103360002303C0011124992319F09093BA0602C0D7
:10337000F092BA068D81811104C08E81882309F4F0
:1033800051C08091B3069091B4060E94D6229C0150
:103390009091B106992309F4A0C02135310508F4B4
:1033A00041C09F3F19F09F5F9093B106DD80DD2003
:1033B00061F00E945D171D1414F491E001C09FEFAD
:1033C000899F802D11248093BB06DE80DD2061F073
:1033D0000E945D171D1414F491E001C09FEF899FB6
:1033E000802D11248093BC063091BB063323D1F08D
:1033F0002091BC062223B1F045EB3403C001112417
:10340000992319F09093BB0602C0F092BB0635EBEE
:103410002303C0011124992319F09093BC0602C024
:10342000F092BC0646E050E0BE016F5F7F4F87EB35
:1034300096E00E943A28892BA9F48091B90681115F
:103440000FC08091BA0681110BC08091BB0681111B
:1034500007C081E09091BC06911103C080E001C0DB
:1034600081E080FD0E94331786E0FE013196A7EBD4
:10347000B6E001900D928A95E1F70E94C1239091E8
:10348000AF06891709F444CE8093AF068FB7F8943E
:103490004091D6075091D7076091D8077091D9070E
:1034A0008FBF36CEC9BCD9BC09B400FEFDCF809118
:1034B000D8008F7D8093D8008091E0008260809357
:1034C000E0008091E00081FDFCCF0E948C1429CEA9
:1034D0002531310508F00FCF4DCF2B30310508F0E5
:1034E00062CFA0CF80E008959091490692FF0DC071
:1034F000282F2871283019F4877F846006C0282F70
:103500002471243011F48B7F886093FF0DC0282F25
:103510002871283119F4877E846106C0282F247110
:10352000243111F48B7E886120914A0620FF0DC062
:10353000382F3871383019F4877F816006C0382FF2
:103540003171313011F48E7F886021FF0DC0282F3A
:103550002871283119F4877E816106C0282F2171D6
:10356000213111F48E7E886194FD877E0895823822
:10357000910569F1B0F48133910509F475C048F4FF
:103580008932910509F467C08A32910509F471C046
:1035900008958533910509F459C089339105B9F02F
:1035A0000895833E910589F138F4803E9105D1F06C
:1035B000823E910529F10895863E9105C9F1873E25
:1035C0009105D9F1843E910509F06CC027C0209186
:1035D000490620FD57C021FD55C020914A0623FD14
:1035E0005BC008958091490680FD48C080914A06DD
:1035F00080FF48C08091490684FD46C083EE51C0DB
:103600008091490682FF3CC0F5CF8091490682FD3A
:1036100037C080914A0680FD35C0ECCF80914A06C4
:1036200081FF36C08091490684FD2EC087EE39C0E7
:103630008091490683FF2AC0F5CF8091490683FD1A
:1036400025C080914A0681FD23C0ECCF80914906B8
:1036500085FD22C01FC08091490685FD1BC0809159
:103660004A0683FF19C00AC08091490686FD16C02C
:1036700017C08091490686FD13C010C089E311C0B0
:1036800082EE0FC080EE0DC080E00BC086EE09C058
:1036900084EE07C085E305C089E203C08AE201C069
:1036A00081E390E00895F894E82FE295EF70F0E060
:1036B00031A1282F2F7081E090E001C0880F2A955A
:1036C000EAF7982F9095932391A392A1892B82A337
:1036D00078940895A7E0B0E0E0E7FBE10C940A28B5
:1036E000AE014F5F5F4F7A0187E0FA0111928A9530
:1036F000E9F70CEF11E06A01AA24A394B12CF801B8
:1037000080818F3F09F441C0F894E82FE295EF7073
:10371000F0E021A18F70A50102C0440F551F8A95CA
:10372000E2F7CA01922F982B91A392A18095892349
:1037300082A3789400C0E3E0F2E0912C31E0219183
:103740002F3F89F0A22FA295AF70B0E090968C9198
:1037500090E02F7002C0959587952A95E2F780FD3D
:1037600002C0832F01C080E0982A330F52E0EA3074
:10377000F50729F7F80180818F3F11F00E94531B54
:10378000F0EAFA95F1F7F60190820F5F1F4FFFEF15
:10379000CF1ADF0A42E00330140709F0B0CF47E048
:1037A00050E0B70188E996E00E943A28892B89F019
:1037B00087E0F701A8E9B6E001900D928A95E1F75C
:1037C00081E0809350070E94E52290934F078093F9
:1037D0004E0780915007811102C080E020C0809187
:1037E0004E0790914F070E94D6220597B0F347E00D
:1037F00050E068E976E080EA96E00E943A28892B5A
:1038000059F087E0E8E9F6E0A0EAB6E001900D9211
:103810008A95E1F781E001C080E010925007279679
:10382000EBE00C9426287730B0F46730A0F48430B5
:10383000A0F491E3899FF001112487E0789FE00DC7
:10384000F11D1124E60FF11DEE0FFF1FE650FB4F97
:1038500085919491089580E001C081E090E0089501
:103860001F93CF93DF930E94B71AEC01C11580E537
:10387000D807E8F5C11590E4D90708F0A8C0C03E04
:10388000D10530F5CD3CD10508F094C0C83AD1053A
:1038900078F4C53AD10508F083C0C130D10509F4E8
:1038A0007CC008F4F2C0C430D10508F0F1C0EDC00E
:1038B000C33CD10508F0E9C0C85AD0E0CC0FDD1FE9
:1038C000C35FDD4F0990D881C02DCE019464E1C063
:1038D000C11580E2D80708F0CBC0C11591E0D90727
:1038E00008F06BC0C83ED10508F4D2C0CEC0C036C7
:1038F00082E5D80728F5C03492E5D90708F079C0E9
:10390000C03282E5D80708F06CC0C11592E5D9072E
:1039100008F481C04C2F4695469580E2489FA0014F
:103920001124C37021E030E0C90102C0880F991F43
:10393000CA95E2F7EA01C82BD92BCE019D68A9C030
:10394000C03A82E5D807B8F48C2F8F71C03892E561
:10395000D90708F07BC08695869590E2899F9001F3
:103960001124C37081E090E002C0880F991FCA95AE
:10397000E2F79A6868C0C03C82E5D80708F46DC0D9
:10398000C03E92E5D90708F080C0CF71DD27DC2F5B
:10399000CC27CE01806F906A7CC081E090E079C036
:1039A000C55AD0E0C65FDD4F8881C82FD0E0CE0178
:1039B00090646FC0CE0190656CC08D2F0E94741A08
:1039C000182FCE0199270E94B71A1F715CC0CE0133
:1039D00099270E94B71ACC27DF70D06A8C2B9D2BB9
:1039E00058C0CF71D0E0DC2FCC27CE01816F906A18
:1039F00050C08C2F8F718695869590E2899F90019B
:103A00001124C37081E090E002C0880F991FCA950D
:103A1000E2F79C6818C08C2F8F710E94741A95E091
:103A2000D695C7959A95E1F7CF70D0E0DC2FCC27DB
:103A3000282F30E084FF05C084E0220F331F8A95D1
:103A4000E1F7D069CE01822B932B23C090E0D82FD1
:103A5000CC27CE01846F906A1CC08C2F8F710E947E
:103A6000741A8F7190E0D82FCC27CE01906211C0CC
:103A70008D2F8F710E94741A182FCE0199270E94E2
:103A8000B71A1F719062912B04C080E090E001C0D2
:103A9000CE01DF91CF911F910895A5E0B0E0E3E55D
:103AA000FDE10C9411280E94E5228C0180914C07C5
:103AB00090914D0708171907A1F08FEF89838A832A
:103AC0001B820E94E5228160782F9D838C8349812F
:103AD0005A816B818D810E94142010934D070093B1
:103AE0004C072596E4E00C942D2867EE7EEF80E0ED
:103AF00090E00E94BF2760E082E090E00E94A12752
:103B000060E083E090E00E94A12710924B071092A2
:103B10004A0760E074E184E090E00E94BF2760E023
:103B200086E090E00E94A1276FEF87E090E00E947E
:103B3000A12740E050E0BA0188E090E00E94B3275E
:103B400060E08DE090E00E94A12740E050E0BA01E3
:103B500088E190E00E94B32760E087E190E00E9456
:103B6000A12740E050E0BA018CE190E00E94B32729
:103B700060E070E080E290E00E94BF2740E050E00B
:103B8000BA0188E190E00E94B32740E050E0BA011A
:103B90008FE090E00E94B32740E050E0BA0183E15B
:103BA00090E00E94B32708958091490781111092F7
:103BB0004907089580959091480789238093480785
:103BC00008959091480780915B07982B9093BD06CC
:103BD000809149078823D9F0892B8093BD06809175
:103BE0000401882331F08091490687FF02C08EE1ED
:103BF00001C086E0EFEBF6E090E0815028F02191E3
:103C00002223D9F39F5FF9CF91110E94D41D40E286
:103C100050E068E277E08DEB96E00E943A28892B2D
:103C200021F180E2EDEBF6E0A8E2B7E001900D9221
:103C30008A95E1F7E091D107F091D2073097A9F08A
:103C400080910401882359F08091490687FF07C0BD
:103C50008091BD068093BE0686E08093BD060280FB
:103C6000F381E02D8DEB96E00995089520912707CB
:103C70008095822380932707982F977099F430E0DE
:103C8000482F082E000C550B2417350759F090913A
:103C90004A0692FF07C08595859585950E94651413
:103CA00010922707089590914A0692FB222720F947
:103CB000281779F080FB92F990934A0660914906A3
:103CC00070914A0684E090E00E94BF2782E00E9443
:103CD000361E0895209126079091E5062917B1F028
:103CE00030E0F90153E0EE0FFF1F5A95E1F7EA517A
:103CF000F94F5181561306C05081581303C05281A9
:103D0000541306C02F5F3F4F2770E8CF80E008951F
:103D100081E00895452B41F06F3F41F491E08F3FE2
:103D200009F090E0892F03C081E001C080E0809518
:103D300081700895809126079091E506891719F002
:103D40008F5F8770FBCF0895292F33272115310509
:103D500019F0C90148E001C040E09C0164E03695DB
:103D600027956A95E1F72115310511F04C5FC901DE
:103D70009C0136952795369527952115310511F02B
:103D80004E5FC9019C0136952795232B09F04F5FA3
:103D9000842F0895A5E0B0E0E0EDFEE10C94122838
:103DA000FC0186819781009709F5CF0125E0DE01AE
:103DB000119601900D922A95E1F7FC0122818981EB
:103DC0009A81222359F0662349F00E945B11182F33
:103DD000682F89819A810E942A1403C00E94F713D8
:103DE000182F69817A81812F0E94131C2596E3E0A8
:103DF0000C942E280E948C142FEF84E39CE0215019
:103E000080409040E1F700C000009AE088E10FB6E2
:103E1000F894A895809360000FBE90936000FFCF48
:103E20000E948C142FEF84E39CE02150804090404E
:103E3000E1F700C0000087E797E7909301088093BF
:103E400000089AE088E10FB6F894A8958093600086
:103E50000FBE90936000FFCFCF93DF93EC010E94E1
:103E6000A41E813051F030F0823049F445E160E029
:103E700080E008C040E060E004C040E001C045E1EF
:103E800065E185E10E94FF25CE01DF91CF91089584
:103E90008232910508F0C7C0FC01EC53FF4F0C942F
:103EA000FD27662309F4BFC081E090E005C06623CA
:103EB00009F4B9C088E090E00E945E14089566237A
:103EC00009F4B1C086E097E0ACC0662309F4ABC04A
:103ED00082E097E0A6C0662309F4A5C08EEF96E0C5
:103EE000A0C0662309F49FC08AEF96E09AC06623BB
:103EF00009F499C086EF96E094C0662309F493C054
:103F000082EF96E08EC0662309F48DC08EEE96E0B7
:103F100088C0662309F487C00E94101F662309F435
:103F200082C08AEE96E07DC0662309F47CC086EEEE
:103F300096E077C0662309F476C082EE96E071C001
:103F4000662309F470C08EED96E06BC0662309F419
:103F50006AC08AED96E065C0662309F464C086ED08
:103F600096E05FC0662309F45EC082ED96E059C01A
:103F7000662309F458C08EEC96E053C0662309F41A
:103F800052C08AEC96E04DC0662309F44CC086EC22
:103F900096E047C0662309F446C082EC96E041C033
:103FA000662309F440C08EEB96E03BC06623D9F14E
:103FB0008AEB96E036C06623B1F186EB96E031C01D
:103FC000662389F182EB96E02CC0662361F18EEACC
:103FD00096E027C0662339F18AEA96E022C066237C
:103FE00011F186EA96E01DC06623E9F082EA96E0C8
:103FF00018C06623C1F08EE996E013C0662399F0DD
:104000008AE996E00EC0662371F082E996E009C065
:10401000662349F08AE896E004C0662321F082E82E
:1040200096E00E949E0B0895ABE1B0E0EAE1F0E279
:104030000C940328498B5A8B6B8B7C8B8D8B611175
:1040400010925B079E01275F3F4F88E0F9011192B4
:104050008A95E9F785E0FE017196D90101900D92EC
:104060008A95E1F789859A854C855D85452B31F0E8
:104070009F3F31F491E08F3F19F403C091E001C0FC
:1040800090E090FDFAC161E0C9010E94CA1E5C0186
:104090008035FCE79F0739F48B858823A1F081E008
:1040A0008093FB01EAC181352CE7920731F48B85BF
:1040B000882349F00E942025E0C182359C4719F4ED
:1040C0008B85811111C00DE011E0712CC12CD12C18
:1040D00088248394912C55245394CE0101969F8B70
:1040E0008E8BF7E04F2E3AC08091FB018823B9F206
:1040F000E1CFFFEFEF16FF0609F46DC1F80144812F
:10410000411147C03090FB01232DF22FF1703F2E5B
:104110006B84F80125818681662009F4F3C0332081
:1041200009F4F0C02223C1F1940102C0220F331F11
:104130009A95E2F721503109F801868190E028171D
:10414000390709F440C07628FFEFCF1ADF0A095F6C
:104150001F4F22E2C216D10409F43FC1F801408189
:1041600051816FEF8FEF90E0E92EF12CF701EE0F08
:10417000FF1FE40FF51F25913491A216B30611F02D
:10418000E62EF82E232B09F4B4CF9F5F6E2D8F2DD2
:10419000EBCF20E030E0B9CF94010E2C01C0220F0C
:1041A0000A94EAF7822B86832091590730915A07A7
:1041B0002431310508F0B8CF24E130E030935A07BC
:1041C00020935907B1CF8091C8079091C9070097F4
:1041D00029F00E94D622459708F04CC18091C6076D
:1041E000B091C707982FE0E0F0E08B1709F45FC0AB
:1041F000282F30E0F901EE0FFF1FE254F84FE08066
:10420000F1804E9CF0014F9CF00D1124E35FFE4FB6
:1042100040814A8F41814B8FA0E060E070E0EA8DE1
:10422000FB8DE70FF11DE70FF11D25903490211450
:104230003104D1F0F801F081F88FF801F181F98FA4
:1042400060E0E88DF98DE60FF11DE60FF11D459157
:1042500054914115510531F02416350609F4A1E0B9
:104260006F5FEFCF7F5FDBCFAA23D1F0671708F432
:10427000FBC04E9CF0014F9CF00D1124E35FFE4FFC
:10428000309781F054820E171F0719F49093C607D8
:104290005ACF981307C0C9010196982F937002C096
:1042A000E0E0F0E02F5F3F4F822F83709ECF90932E
:1042B000C6070E171F0709F446CF90E0FC01EE0F6A
:1042C000FF1FE254F84FD182C08201968370992774
:1042D0008093C707F801828193810E946124209115
:1042E000590730915A07882319F02639310518F0FB
:1042F000922F832F02C096E980E090935907809314
:104300005A0721CF21111BC0940102C0220F331F75
:104310009A95E2F72150310990E02817390709F002
:104320004CC0411108C0F801828193810E94612430
:10433000882309F443C0C6010E947A243EC090E05D
:104340009C0121503109282339230E2C02C0959558
:1043500087950A94E2F7232B61F580FF2AC0F801C4
:1043600082819381892BE1F088E0EE89FF891192A7
:104370008A95E9F78EEF89838A830E94E52281601E
:10438000582F9D838C83F801828193818F83988736
:1043900029813A814B816D817E810E94BB1404C0CA
:1043A00060E0C6010E94481FF8011582332433944F
:1043B00005C0F82FF1703F2E01C0312CC4010E2C26
:1043C00001C0880F0A94EAF78095F8019681892345
:1043D0008683632CB8CE612CB6CE8B85882381F181
:1043E000772071F10E94E5229093C9078093C80756
:1043F00080915D07883008F04AC091E0980F909353
:104400005D0798E0FE013996DE01119601900D924C
:104410009A95E1F73CE0839FC0011124825A984F9E
:1044200028E0FE013196DC0101900D922A95E1F71A
:104430002FEF3FEFFC0131872087B386A28627C08C
:104440009091C6078091C707981719F00E942F25F1
:1044500008C00E94A8241092C9071092C8070E94A1
:104460000F25772051F013C00115110509F418CF5D
:104470009093C607F801548266CE29853A854B850C
:104480005C856D857E858F8598890E94BB146B96AF
:10449000E2E10C941F2880914D0608958091580701
:1044A000882319F0815080935807609154077091C8
:1044B000550780915607909157070E94E31608957B
:1044C00080915807833018F48F5F8093580760916C
:1044D00054077091550780915607909157070E9495
:1044E000E31608950F931F93CF93DF938B01EA0197
:1044F00090917006943079F58F708093E9008FEF7A
:104500009091E800815095FD06C095ED9A95F1F7E0
:1045100000008111F5CF8091E80085FF1CC00E944A
:10452000C510882361F08091E8008E778093E800C1
:1045300012C0F80181918F018093F100219720979B
:1045400091F38091E80085FDF4CF8091E8008E77AB
:104550008093E800E4CFDF91CF911F910F910895F0
:1045600078941F920F920FB60F9211248F939F93FE
:10457000AF93BF938091D6079091D707A091D807AA
:10458000B091D9070196A11DB11D8093D6079093D4
:10459000D707A093D807B093D907BF91AF919F9148
:1045A0008F910F900FBE0F901F9018959C014FB7E1
:1045B000F8948091D6079091D707A091D807B09131
:1045C000D9074FBF821B930B08952FB7F8948091A2
:1045D000D6079091D707A091D807B091D9072FBFE0
:1045E00008951F920F920FB60F9211248F939F93ED
:1045F000AF93BF938091D507811113C08091D607E7
:104600009091D707A091D807B091D9074196A11DE5
:10461000B11D8093D6079093D707A093D807B09386
:10462000D907BF91AF919F918F910F900FBE0F90BF
:104630001F901895209104012223C9F0209149066A
:1046400027FF15C0262F2695269526952E31C8F4CE
:10465000FC01E20FF11D677081E090E001C0880F5E
:104660006A95EAF780959281892382830895FC01F7
:1046700006962281621301C012823196E817F9076B
:10468000C1F70895209104012223C1F02091490629
:1046900027FF14C0262F2695269526952E3130F516
:1046A000FC01E20FF11D677081E090E001C0880F0E
:1046B0006A95EAF79281892B82830895FC013296EC
:1046C0002FEF30E04191641789F02F3F19F4411129
:1046D00001C0232F3F5F3630A9F72F3F39F0FC018F
:1046E000E20FF11D27FDFA95628308950895A3E076
:1046F000B0E0EDE7F3E20C9413282091D30730915A
:10470000D40728173907A1F09093D4078093D307D3
:10471000E091D107F091D207309751F024E029833E
:104720009B838A830680F781E02DCE01019609954F
:104730002396E2E00C942F28A3E0B0E0E2EAF3E253
:104740000C9413282091CF073091D00728173907F0
:10475000A1F09093D0078093CF07E091D107F0911B
:10476000D207309751F023E029839B838A83068008
:10477000F781E02DCE01019609952396E2E00C9495
:104780002F28E091D107F091D207309729F00190BE
:10479000F081E02D0995089580E008950F931F930F
:1047A000CF93DF93C42FD22FFC0182818823B1F0F5
:1047B0004093CE070E94E5229093CD078093CC07CB
:1047C00080E28C0F883008F04DC0C77081E001C0D6
:1047D000880FCA95EAF70E943F1544C08091CE0722
:1047E000481330C08091CC079091CD070E94D6220B
:1047F0008639910538F510E21D0FCD17B9F080E22A
:104800008C0F883040F4C77081E001C0880FCA95D2
:10481000EAF70E943815183010F581E09D2F977047
:1048200001C0880F9A95EAF70E943F15802F0E94D9
:1048300071161830B8F4D77081E001C0880FDA958E
:10484000EAF70AC080E28C0F883060F4C77081E01C
:1048500001C0880FCA95EAF70E94381503C0802F5F
:104860000E947116DF91CF911F910F910895A0E0E2
:10487000B0E0EDE3F4E20C940D28EC016B01042FA1
:10488000E090CA07F090CB070E948C1480E090E083
:104890000E945E1488E0080280011124CC15DD0519
:1048A00031F0CE010E948C04C00FD11FF7CF0E94BF
:1048B0008C14C7010E945E14CDB7DEB7E8E00C94FB
:1048C00029289C01205E31092830310580F02052D2
:1048D000310921153F4110F4882349F09C012052F1
:1048E000324581E02032310518F080E001C081E0DE
:1048F00081700895BC014091C6078091C707942F2D
:10490000981729F1292F30E0F901EE0FFF1FE2542B
:10491000F84F0190F081E02DE617F70799F487E052
:10492000869FF001879FF00D1124E35FFE4F81E029
:10493000848394130CC02F5F3F4F23703327209341
:10494000C60708952F5F3F4F922F9370D9CF0895D8
:104950000F931F93CF93DF9380915D07882309F412
:1049600059C0C0915C071CE080915D07C81708F032
:104970004DC001E00C0F00935C07D0E01C9FF001DC
:104980001D9FF00D1124E25AF84F908181812381FF
:104990003481232B31F08F3F31F481E09F3F19F4B4
:1049A00003C081E001C080E080FD2EC01C9FD001CB
:1049B0001D9FB00D1124A25AB84F16968D919C914F
:1049C0001797892B61F418968D919C9119978F3FB9
:1049D0002FEF920721F061E00E94481F0AC020815A
:1049E00031814281538164817581868197810E94E2
:1049F000BB141C9FF0011D9FF00D1124E25AF84FCB
:104A00001482138210925B07C02FAECF10925D0705
:104A100010925C07DF91CF911F910F910895109232
:104A20005A0710925907EDE0F1E08581811102C02B
:104A300014821682379681E0EB3FF807B1F70895AC
:104A40001092C9071092C8071092FB018091C70706
:104A50008093C6070E940F250E94A8240895A0E015
:104A6000B0E0E5E3F5E20C940328C091C607E7E067
:104A7000FE2E01E010E0FCE02F2EAEEFEA2E80913A
:104A8000C707C81709F47AC0D0E0FE01EE0FFF1F78
:104A9000E254F84F80819181F89EF001F99EF00D6B
:104AA0001124E35FFE4F2481211165C060905D07F2
:104AB000AEE5B7E020E030E0712C5F01261508F08C
:104AC00058C01A964D905C901B97F501808091809C
:104AD0004FEF5FEF312CC32CD12CF601EE0FFF1FEF
:104AE000E80DF91D659174914616570609F4A60163
:104AF000672B11F03394EFCF4F3FFFEF5F07A9F122
:104B0000B80102C0660F771F4A95E2F7762AA8011E
:104B1000032C02C0440F551F0A94E2F7415051097B
:104B2000672D70E046175707E1F4229EF001239E9F
:104B3000F00D1124E25AF84FF89ED001F99EB00D05
:104B40001124A35FBE4F12962D913C91139737838A
:104B50002683E082E1829187808771E015967C93BD
:104B600008C014961C921E9213972F5F3F4F1C96FD
:104B7000A5CF0E947A242196C37081CF0E94A824D9
:104B80000E940F25CDB7DEB7E2E10C941F288823E1
:104B900011F0FA0101C0FB010995089580915407B5
:104BA00080FD06C0109252071092510710925307D1
:104BB000879A81B38F7791B390682FB7F894E1E526
:104BC000F7E044E557E04E175F0789F0319168E060
:104BD00091BB000000C037FF81BB330F000000C055
:104BE00000C000C081BB00C06A9591F7ECCF2FBF19
:104BF0008FE594E00197F1F700C0000008959091CF
:104C0000540790FF08C08093520760935107409368
:104C100053070E94CE250895A0E0B0E0E2E1F6E25D
:104C20000C9406289091540790FF9AC0522E142F8E
:104C3000C62FD82F9E7F923009F080C0E42FF0E07D
:104C4000611106C0E652F84F4491842F642F74C05E
:104C5000C62ED12CE652F84FF4910F2FAF2EB12C67
:104C600026E0829FC00111242FEF30E0B9010E949D
:104C7000D5274BEA4603C001479F900D11248D0FA5
:104C8000911D8D0F911DE82FEE0FE80FA9014C1912
:104C90005D094A9DD0014B9DB00D5A9DB00D112468
:104CA0004B2FCE9FC0011124892F99277901E81A33
:104CB000F90AC7018A9D70018B9DF00C9A9DF00C3A
:104CC000112439016E1A71086C9C40016D9C900C86
:104CD0007C9C900C1124892C9924281939092A9D2F
:104CE000C0012B9D900D3A9D900D1124292F62300B
:104CF000710591F048F461157105E1F061307105BD
:104D0000B9F42F2FFF2D16C06430710569F040F003
:104D10006630710579F00CC02F2FFB2F492F0AC088
:104D2000FB2F402F2F2D06C02B2F4F2FF92F02C006
:104D30002B2F4F2D8F2F622F0E94FF25D0935507C9
:104D4000C093560710935707552051F060915407B0
:104D50007091550780915607909157070E94E3166E
:104D6000CDB7DEB7EFE00C942228662309F45CC0CF
:104D70008D3C21F40E947F17819504C08E3C29F45C
:104D80000E947F178093BA06C5C08F3C21F40E9411
:104D90007F17819504C0803D29F40E947F1780937E
:104DA000B906B8C0893D19F40E945D1705C08A3D57
:104DB00031F40E945D1781958093BB06ABC08B3D9B
:104DC00021F40E945D17819504C08C3D29F40E9456
:104DD0005D178093BC069EC09FE2980F983078F4D0
:104DE00021E030E0A90102C0440F551F9A95E2F777
:104DF000CA019091B806892B8093B8068BC08D3D6F
:104E000021F48091B20681600CC08E3D21F4809126
:104E1000B206826006C08F3D09F07CC08091B20668
:104E200084608093B20676C08D3C39F49091BA06C6
:104E300097FF35C01092BA0659C08E3C29F4909164
:104E4000BA061916BCF32BC09091B9068F3C29F411
:104E500097FF25C01092B90649C0803D19F4191674
:104E6000CCF31DC09091BB06893D29F41916BCF402
:104E70001092BB063BC08A3D19F497FF10C0F8CFD3
:104E80008B3D39F49091BC0697FF09C01092BC0687
:104E90002DC08C3D21F49091BC061916BCF39FE205
:104EA000980F983080F421E030E0A90102C0440F4F
:104EB000551F9A95E2F7CA0180959091B80689230B
:104EC0008093B80613C08D3D21F48091B2068E7F89
:104ED0000BC08E3D21F48091B2068D7F05C08F3DC1
:104EE00029F48091B2068B7F8093B2068091B90637
:104EF000811106C08091BA06811102C01092B006DD
:104F00008091BB06811106C08091BC06811102C050
:104F10001092B1060E9433170895F999FECF92BD01
:104F200081BDF89A992780B50895A6E1B0E044E0E4
:104F300050E00C94C727A8E1B0E042E050E00C94A8
:104F4000C727262FF999FECF92BD81BDF89A019708
:104F500000B4021639F01FBA20BD0FB6F894FA9AC1
:104F6000F99A0FBE08950396272F0E94A2270E9448
:104F7000A127252F0E94A227242F0C94A227019657
:104F8000272F0E94A2270C94A127DC01CB01FC0152
:104F9000F999FECF06C0F2BDE1BDF89A319600B492
:104FA0000D9241505040B8F70895AA1BBB1B51E128
:104FB00007C0AA1FBB1FA617B70710F0A61BB70B89
:104FC000881F991F5A95A9F780959095BC01CD012E
:104FD000089597FB072E16F4009407D077FD09D0AB
:104FE0000E94D52707FC05D03EF4909581959F4FF0
:104FF0000895709561957F4F0895EE0FFF1F0590FE
:10500000F491E02D09942F923F924F925F926F920C
:105010007F928F929F92AF92BF92CF92DF92EF9248
:10502000FF920F931F93CF93DF93CDB7DEB7CA1BC9
:10503000DB0B0FB6F894DEBF0FBECDBF09942A88F4
:10504000398848885F846E847D848C849B84AA849C
:10505000B984C884DF80EE80FD800C811B81AA8129
:10506000B981CE0FD11D0FB6F894DEBF0FBECDBFF4
:10507000ED010895FB01DC0104C08D9101908019C0
:1050800021F441505040C8F7881B990B0895F894BB
:02509000FFCF50
:105092003E064602014B227A0B730B6C0BD40700BF
:1050A20000000000CE070000000000C8070000005A
:1050B2000000C2070000000000BC07000000000062
:1050C200B6070000000000B0070000000000AA07B9
:1050D2000000000000A40700000000009A07000082
:1050E200000000940700000000008E07000000008E
:1050F2000088070000000000820700000000007C1A
:1051020007000000000076070000000000700700A2
:10511200000000006A0700000000006407000000B1
:1051220000005E07000000000058070000000000B9
:10513200520700000000004C070000000000460774
:105142000000000000400700000000003A070000D5
:10515200000000340700000000002E0700000000DD
:105162000028070000000000220700000000001CC9
:1051720007000000000016070000000000100700F2
:10518200000000000A07000000000001F49466C657
:10519200919036349392F535F697818283E200E955
:1051A20000EA00B500B600B700CD008301CC008A4A
:1051B20001920194012102230224022502260227E0
:1051C200022A02B300B4006F0070009F01CB019F5E
:0451D20002A0020035
:00000001FF
